:020000040800F2
:10000000D01C0020A10100083F0600085F05000881
:100010003D0600083F020008A9100008000000008B
:10002000000000000000000000000000C10B0008FC
:100030004102000800000000E70A0008970E0008CF
:10004000BB010008BB010008BB010008BB010008A0
:10005000BB010008BB010008BB0100084502000805
:1000600085020008B902000805030008BB0100086A
:10007000BB010008BB010008BB010008BB01000870
:10008000BB010008BB010008BB010008BB01000860
:10009000BB010008BB010008BB010008BB01000850
:1000A000BB010008BB010008BB010008BB01000840
:1000B000BB010008BB010008BB010008BB01000830
:1000C000BB010008BB010008BB010008BB01000820
:1000D000BB010008BB010008BB010008BB01000810
:1000E000BB010008BB010008BB010008BB01000800
:1000F000BB010008BB010008BB010008BB010008F0
:10010000BB010008BB010008BB010008BB010008DF
:10011000BB010008BB010008BB010008BB010008CF
:10012000BB010008BB010008BB010008BB010008BF
:10013000BB010008BB010008BB010008BB010008AF
:10014000BB010008BB010008BB010008BB0100089F
:10015000BB010008BB010008BB010008BB0100088F
:10016000BB010008BB010008BB010008BB0100087F
:10017000BB010008BB010008BB010008BB0100086F
:10018000BB010008BB010008DFF810D000F01AF82E
:10019000004800471B110008AFF30080D01C00206E
:1001A0000648804706480047FEE7FEE7FEE7FEE711
:1001B000FEE7FEE7FEE7FEE7FEE7FEE7990E000832
:1001C00089010008064C074D06E0E06840F0010395
:1001D00094E8070098471034AC42F6D3FFF7D8FFF5
:1001E000F02800081029000870B58C1810F8015B81
:1001F00015F0070301D110F8013B2A1106D110F8C0
:10020000012B03E010F8016B01F8016B5B1EF9D1C3
:100210002B0705D40023521E0DD401F8013BFAE749
:1002200010F8013BCB1A921C03E013F8015B01F8B4
:10023000015B521EF9D5A142D8D3002070BDFEE764
:100240007047000010B5022000F082F8002814D09A
:100250000A490878401CC0B20870032801D903205D
:100260000870074C0221204600F06EF90028F9D0F2
:10027000BDE81040022000F065B810BD100000205D
:10028000000C024010B5042000F062F800280ED0E7
:10029000074901200870074C0421204600F054F95A
:1002A0000028F9D0BDE81040042000F04BB810BD84
:1002B00010000020000C024010B5082000F048F8A3
:1002C000002816D00B49002008700B490120087047
:1002D0000A48016881F400510160094C0821204658
:1002E00000F032F90028F9D0BDE81040082000F0F5
:1002F00029B810BD1100002012000020140802408F
:10030000000C024010B5102000F022F8002811D097
:10031000094901200870094900200870084C102183
:10032000204600F011F90028F9D0BDE81040102057
:1003300000F008B810BD00001100002012000020DD
:10034000000C02400149086070470000143C014065
:1003500001460020024A12680A4200D0012070477C
:10036000143C014030B51B4A83790168002B2AD028
:1003700013688B431360111D0B680468A3430B6063
:10038000017911440B68046823430B60114C083455
:100390002168036899432160231D19680568A943F2
:1003A00019604179102905D011440A680068024398
:1003B0000A6030BD21680268114321601968006835
:1003C0000143196030BD0079104402688A4302601D
:1003D00030BD0000003C01402DE9FF410121082013
:1003E00000F082FB0121880300F08CFB00F028F96B
:1003F0000226029600248DF80C4001258DF80F503E
:10040000DFF8A48002A9404600F050F80121032043
:1004100000F0D8FB00968DF804400C268DF805609E
:100420008DF806506846FFF79DFF0427029702A942
:10043000404600F03BF80221032000F0C3FB009788
:100440008DF804408DF805608DF806506846FFF77A
:1004500089FF0827029702A9404600F027F80321E8
:10046000084600F0AFFB00978DF804408DF805605A
:100470008DF806506846FFF775FF1027029702A90E
:10048000404600F013F80421032000F09BFB009786
:100490008DF804408DF805608DF806506846FFF72A
:1004A00061FFBDE8FF810000000C02402DE9F04132
:1004B000002201274FF0030C07FA02F50B682B40CE
:1004C000AB422CD1066853000CFA03F4A643066035
:1004D0000E79D0F800809E4046EA080606600E7944
:1004E000012E01D0022E12D18668A64386604E7975
:1004F000D0F808809E4046EA080686604668AE430B
:10050000466045688E799640B6B235434560C56809
:10051000A543C560CC799C40C3681C43C460521C91
:10052000102AC9D3BDE8F08110B54B07DB0E9A4005
:10053000C90800EB8100016A0F249C40A1430162BD
:10054000016A1143016210BD0246002012690A428D
:1005500000D0012070474183704701837047FEE758
:1005600010B50F4C20212046FFF7F7FF012000F0C7
:10057000ABFD10212046FFF7F0FF012000F0A4FDA5
:1005800020212046FFF7E7FF012000F09DFD10210C
:100590002046FFF7E0FFBDE81040012000F094BDC9
:1005A0000008024010B50C4C10212046FFF7D5FF83
:1005B000012000F089FD20212046FFF7CCFF01201B
:1005C00000F082FD20212046FFF7C7FFBDE8104064
:1005D000012000F079BD00000008024010B5084C71
:1005E00010212046FFF7B9FF012000F06DFD10211A
:1005F0002046FFF7B0FFBDE81040012000F064BDC9
:10060000000802401CB50121042000F06DFA4FF4EF
:100610000054009401218DF8041000208DF806008C
:100620008DF807108DF8050069460348FFF73EFF77
:100630000148183004801CBD00080240FEE77047E6
:1006400008B54FF4C06000F067F807208DF800008F
:1006500001208DF801008DF802008DF80300684636
:1006600000F026F808208DF80000684600F020F819
:1006700009208DF80000684600F01AF80A208DF86D
:100680000000684600F014F808BD08B54FF4C060DB
:1006900000F042F825208DF8000001208DF80100BF
:1006A0008DF802008DF80300684600F001F808BDDF
:1006B00030B50F23C27801250178002A1FD0154AD2
:1006C000126802F4E062C2F5E062C2F30722C2F1EE
:1006D0000404D3404278A24084781C401443220191
:1006E00001F1E02181F80024007800F01F018D4025
:1006F0004009800000F1E020C0F8005130BD01F059
:100700001F0085404809800000F1E020C0F88051BA
:1007100030BD00000CED00E00249084302490860CA
:10072000704700000000FA050CED00E030B4002135
:10073000084B0022002003EBC0046254401CC0B2EE
:100740008028F8D3491CC9B20829F3D330BC00F083
:100750000DB900004C140020CA0801F00701012364
:100760008B40044901EBC000815CC9431943C94374
:10077000815470474C14002010B50021074B002213
:10078000002003EBC0046254401CC0B28028F8D3A0
:10079000491CC9B20829F3D310BD00004C14002035
:1007A0002DE9F04305460E46802A14D8402B12D876
:1007B000954210D89E420ED8A3EB060895420CD164
:1007C000002406E03019C1B2284600F033F8641C5A
:1007D000E4B2A045F6DCBDE8F083571B9E420BD186
:1007E000002406E02819C0B2314600F023F8641C4A
:1007F000E4B2A742F6DCEEE708F0FF00F9B200EB46
:1008000080004000B0FBF1F000F0FF0800244FF042
:100810000A090BE004FB08F0B0FBF9F03044C1B268
:100820002819C0B200F006F8641CE4B2A742F1DC5B
:10083000D1E70000CA0801F0070301219940034BEA
:1008400003EBC000835C0B43835470474C140020BF
:100850001CB50121042000F047F930200090012050
:100860008DF8040000218DF8061003218DF8051085
:100870008DF8070069463C48FFF718FEC82000F0D5
:1008800027FC0021AE2000F011F90021084600F0FD
:100890000DF90021102000F009F90021402000F09E
:1008A00005F90021812000F001F90021CF2000F09E
:1008B000FDF80021A12000F0F9F80021C82000F087
:1008C000F5F80021A62000F0F1F80021A82000F0A2
:1008D000EDF800213F2000F0E9F80021D32000F0DE
:1008E000E5F80021084600F0E1F80021D52000F0ED
:1008F000DDF80021802000F0D9F80021D92000F097
:10090000D5F80021F12000F0D1F80021DA2000F024
:10091000CDF80021122000F0C9F80021DB2000F002
:10092000C5F80021402000F0C1F80021202000F08F
:10093000BDF80021022000F0B9F800218D2000F060
:10094000B5F80021142000F0B1F80021A42000F037
:10095000ADF80021A62000F0A9F80021AF2000F09A
:10096000A5F8FFF7E3FE1CBD0008024070B50025A6
:100970000F4E05F1B000C0B2002100F097F8002141
:10098000084600F093F80021102000F08FF80024B2
:1009900006EBC4000121405D00F088F8641CE4B25D
:1009A000802CF5D36D1CEDB2082DE2D370BD000094
:1009B0004C1400202DE9F84F83460E461F46B246E0
:1009C000780701D0012000E0002000EBD700790873
:1009D0004843C0B20090203A02F0FF0900253BE0F6
:1009E0000C2F12D0102F17D0182F38D11D4909EB1A
:1009F000C90001EB8000445D4FF00008200610D5CF
:100A000031465846FFF716FF0FE0174909EB49003A
:100A100001EB8000445DEFE7144800EB0910445DF2
:100A2000EAE731465846FFF797FE6006040E761C4B
:100A3000F6B2A6EB0A00B84205D156460BF1010BFF
:100A40000BF0FF0B06E008F1010808F0FF08B8F111
:100A5000080FD3D36D1CEDB200988542C0D3BDE81A
:100A6000F88F0000941B000830110008A41500083E
:100A70002DE9F04104460E4615461F46C7F1800891
:100A80000DE03B4631462046FFF794FF04EB57004C
:100A9000C4B2A04502DA0024B61CF6B26D1C2A7856
:100AA000A2F120005E28ECD9BDE8F08170B50546C2
:100AB0000C46FFF755FD782000F09AF8FFF78EFD01
:100AC0001CB1402000F094F802E0002000F090F803
:100AD000FFF784FD284600F08BF8FFF77FFDBDE8A7
:100AE0007040FFF75FBD7047054A002903D01168C9
:100AF0000143116070471168814311607047000025
:100B000030380240054A002903D0116801431160C2
:100B100070471168814311607047000044380240FB
:100B200070B5244B196801F00C01234C00291ED02C
:100B3000661004291DD008291DD00460196801F031
:100B4000F00109091D4A545C0168E14041601C68DC
:100B500004F4E054A40A145D21FA04F484601B68D0
:100B600003F460435B0BD25CD140C16070BD046094
:100B7000E4E70660E2E70F4A121F1168C1F38055EF
:100B8000116801F03F0135B1B6FBF1F11468C4F30F
:100B90008814614305E0B4FBF1F11468C4F38814D0
:100BA00061431268C2F30142521C5200B1FBF2F1E0
:100BB0000160C3E7083802400024F4000000002070
:100BC0007047000010B58A07120F0F23934021F0E1
:100BD00003040649214401F608010C689C430C609B
:100BE0000B68904003430B6010BD000000300140D3
:100BF00070B505460024174E10213046FFF7ABFCB8
:100C0000012000F061FA280607D520213046FFF7C1
:100C1000A4FC012000F058FA06E020213046FFF73E
:100C20009AFC012000F050FA10213046FFF795FCA5
:100C3000012000F049FA10213046FFF78CFC01201A
:100C400000F042FA6806050E641CE4B2082CD3D307
:100C500070BD0000000802400CB500220192009215
:100C60002749086840F4803008604FF4A0430868C2
:100C700000F4003000900198401C0190009810B9D9
:100C800001989842F3D10868800302D501200090B2
:100C900000E000920098012831D1194840300268E4
:100CA00042F0805202601748026842F440420260FB
:100CB0001348083002680260026842F40042026091
:100CC000026842F4A0520260021F0F4B13600A68D0
:100CD00042F080720A600A689201FCD50B4A40F229
:100CE00005711160016821F003010160016841F0A4
:100CF000020101600168C1F381010229FAD10CBD32
:100D0000003802400070004008544007003C024098
:100D100070B505460C4605F10800C2B223462146CF
:100D20002846FFF73DFD601EC1B2681C0646C0B2F2
:100D3000FFF780FD601CC1B2F0B2FFF77BFDA01E83
:100D4000C1B2AD1CE8B2FFF775FDA41CE1B2E8B278
:100D5000BDE87040FFF76EBD10B5164C60780028F6
:100D600001D000F03BF8A078002821D0FFF704FD67
:100D70002078012804D0022809D0032814D10DE0DE
:100D800010230DA214212320FFF772FE0CE0102384
:100D90000CA214212320FFF76BFE05E010230CA208
:100DA00014211E20FFF764FEBDE81040FFF7DEBDF2
:100DB00010BD0000100000204D6F64652D6F6E6542
:100DC000000000004D6F64652D74776F0000000017
:100DD0004D6F64652D7468726565000010B5FFF78E
:100DE000CBFC102315A200212F20FFF741FE0E237C
:100DF0007F2219460020FFF7D3FC0F237F221946DC
:100E00000020FFF7CDFC0C230EA212210020FFF7DB
:100E10002FFE0C230EA221210020FFF729FE0C2318
:100E20000EA230210020FFF723FE1048007800F0CA
:100E30001FF8BDE81040FFF799BD00004D454E5525
:100E400000000000312E4D6F64652D6F6E6500004F
:100E5000322E4D6F64652D74776F0000332E4D6F09
:100E600064652D7468726565000000001000002044
:100E7000012807D0022809D003280BD1372164208C
:100E8000FFF746BF19216420FFF742BF28216420E5
:100E9000FFF73EBF7047704710B51248016841F434
:100EA000700101601048016841F0010101600E4AC3
:100EB00000210832116002680C4B1A400260031DC9
:100EC0000B4A1A60026822F48022026006480C3045
:100ED0000160FFF7C1FE03494FF0006080390860F0
:100EE00010BD000088ED00E000380240FFFFF6FE74
:100EF0001030002470B586B001210846FFF7F4FDDC
:100F000001211020FFF7FEFD00248DF8164001207E
:100F10008DF8170002258DF815508DF814504002F9
:100F200004901C4E04A93046FFF7C0FA8DF8145007
:100F30006902049104A93046FFF7B8FA07220A2192
:100F40003046FFF7F1FA072209213046FFF7ECFAA5
:100F50004FF4E1300090ADF80440ADF80640ADF834
:100F60000840ADF80C400C20ADF80A000A4C694668
:100F7000204600F03BF8FFF788FB012240F22551A4
:100F8000204600F017F80121204600F007F806B0CF
:100F900070BD00000000024000100140002904D094
:100FA000818941F4005181817047818921F4005188
:100FB0008181704710B540F66A13C1F3421301F006
:100FC0001F040121A140012B07D0022B07D01430B0
:100FD0003AB102680A43026010BD0C30F8E71030E5
:100FE000F6E702688A43026010BD00007FB5044640
:100FF0000D46208A20F44051E88808432082A089C9
:1010000041F20C618843A9882A8911436A89024305
:101010001143A181A08A20F44071A8890843A082CD
:101020006846FFF77DFD1E48844202D01D48844279
:1010300001D1039800E00298A189090408D500EBCA
:10104000C00101EB001029684900B0FBF1F007E096
:1010500000EBC00101EB001029688900B0FBF1F042
:101060006422B0FBF2F109010B096FF018056B4324
:1010700000EB8300A3891D044FF0320307D503EB77
:10108000C000B0FBF2F000F00700084306E003EBFD
:101090000010B0FBF2F000F00F00084320817FBD8C
:1010A0000010014000140140FEE702E008C8121FD2
:1010B00008C1002AFAD170477047002001E001C141
:1010C000121F002AFBD17047401E411CFCD1704703
:1010D00038B50446002000904FF47A7505E02846A4
:1010E00000F007F80099491C00910099A142F6D33D
:1010F00038BD0CB5002101910B220AE0009202E0FC
:101100000099491E009100990029F9D10199491CC3
:10111000019101998142F1D30CBDFFF799FBFFF7D3
:1011200071FAFFF759F9FFF7E5FEFFF715FEFCE747
:1011300000000000000000000000000000000000AF
:101140003F40000000000000000030004000300080
:101150004000000009000BC03D000BC03D0009002D
:1011600018C024407FE0224031800000180024C0D5
:101170001B000D803240018003801C4027401C80F2
:101180000740004010006000000000000000000068
:101190000000000000001F80204040200000402090
:1011A00020401F8000000000090006001F8006008C
:1011B00009000000040004003F8004000400000057
:1011C00000100060000000000000000004000400A7
:1011D00004000400040000000000004000000000C3
:1011E00000000000002001C00600380040000000A0
:1011F0001F802040204020401F8000000000104041
:101200003FC000400000000018C0214022402440A0
:101210001840000010802040244024401B80000023
:1012200002000D0011003FC0014000003C8024403E
:1012300024402440238000001F8024402440344068
:10124000038000003000200027C03800200000008C
:101250001B802440244024401B8000001C0022C02E
:10126000224022401F8000000000000008400000D3
:10127000000000000000000004600000000000000A
:10128000000004000A00110020804040090009000D
:101290000900090009000000000040402080110002
:1012A0000A00040018002000234024001800000059
:1012B0001F802040274029401F400000004007C0F9
:1012C00039000F0001C0004020403FC024402440AE
:1012D0001B8000001F802040204020403080000004
:1012E00020403FC0204020401F80000020403FC0E1
:1012F00024402E4030C0000020403FC024402E003B
:10130000300000000F001080204022403380020097
:1013100020403FC0040004003FC020402040204047
:101320003FC02040204000000060202020203FC01F
:101330002000200020403FC024400B0030C020404F
:1013400020403FC020400040004000C03FC03C0063
:1013500003C03C003FC0000020403FC00C402300C1
:101360003FC020001F802040204020401F80000000
:1013700020403FC024402400180000001F8021406E
:10138000214020E01FA0000020403FC02440260054
:1013900019C0004018C02440244022403180000081
:1013A000300020403FC020403000000020003F803F
:1013B000004000403F80200020003E0001C00700A8
:1013C00038002000380007C03C0007C0380000008B
:1013D000204039C0060039C02040000020003840BD
:1013E00007C0384020000000304021C0264038406F
:1013F00020C00000000000007FE0402040200000EE
:10140000000070000C00038000400000000040203D
:1014100040207FE00000000000002000400020008D
:10142000000000000010001000100010001000105C
:1014300000000000400000000000000000000280EA
:101440000540054003C0004020003FC00440044068
:1014500003800000000003800440044006400000B8
:1014600000000380044024403FC00040000003808F
:101470000540054003400000000004401FC0244018
:1014800024402000000002E00550055006500420D2
:1014900020403FC00440040003C00040000004405E
:1014A00027C000400000000000100010041027E0DA
:1014B0000000000020403FC00140070004C004407D
:1014C000204020403FC000400040000007C0040012
:1014D00007C0040003C00000044007C0044004002B
:1014E00003C000400000038004400440038000006B
:1014F000041007F004500440038000000000038043
:101500000440045007F00010044007C002400400EB
:1015100004000000000006400540054004C0000033
:10152000000004001F800440004000000400078009
:101530000040044007C000400400070004C00180D0
:1015400006000400060001C0070001C006000000FC
:10155000044006C0010006C004400000041007104B
:1015600004E00180060004000000044005C00640BD
:10157000044000000000000004007BE04020000068
:10158000000000000000FFF000000000000040200C
:101590007BE00400000000004000800040002000CC
:1015A00020004000000000000000000000000000DB
:1015B000000000000000000000001FCC000C000034
:1015C000000000000000080030006000080030004B
:1015D00060000000022003FC1E20022003FC1E20ED
:1015E0000220000000000E1811043FFF10840C7848
:1015F000000000000F0010840F3800C00778188426
:101600000078000000780F8410C411240E9800E4C4
:10161000008400080800680070000000000000005E
:101620000000000000000000000007E0181820047F
:1016300040020000000040022004181807E00000EB
:10164000000000000240024001800FF001800240D3
:10165000024000000080008000800FF800800080C1
:10166000008000000001000D000E000000000000DE
:1016700000000000000000800080008000800080EA
:10168000008000800000000C000C00000000000042
:101690000000000000000006001800600180060045
:1016A00018002000000007F00808100410040808C3
:1016B00007F000000000080408041FFC00040004F8
:1016C0000000000000000E0C1014102410441184BF
:1016D0000E0C000000000C181004110411041288F4
:1016E0000C700000000000E00320042408241FFC0C
:1016F0000024000000001F981084110411041088B9
:1017000010700000000007F0088811041104188808
:101710000070000000001C00100010FC13001C00F2
:101720001000000000000E38114410841084114491
:101730000E38000000000700088C10441044088890
:1017400007F00000000000000000030C030C000084
:101750000000000000000000000101060000000081
:101760000000000000000080014002200410080872
:101770001004000002200220022002200220022089
:10178000022000000000100408080410022001409C
:101790000080000000000E001200100C106C108081
:1017A0000F00000003E00C1813E4142417C40828E9
:1017B00007D000000004003C03C41C40074000E4C4
:1017C000001C000410041FFC1104110411040E88F5
:1017D0000070000003E00C1810041004100410083E
:1017E0001C10000010041FFC100410041004080852
:1017F00007F0000010041FFC1104110417C41004AA
:101800000818000010041FFC1104110017C010007C
:101810000800000003E00C181004100410441C78A9
:101820000040000010041FFC108400800080108421
:101830001FFC10040000100410041FFC100410040E
:101840000000000000030001100110011FFE100045
:101850001000000010041FFC110403801464181C05
:101860001004000010041FFC100400040004000415
:10187000000C000010041FFC1F0000FC1F001FFCD8
:101880001004000010041FFC0C04030000E01018FA
:101890001FFC100007F008081004100410040808CA
:1018A00007F0000010041FFC1084108010801080CE
:1018B0000F00000007F0081810241024101C080A5C
:1018C00007F2000010041FFC1104110011C01130B8
:1018D0000E0C000400000E1C11041084108410442F
:1018E0001C3800001800100010041FFC1004100029
:1018F0001800000010001FF8100400040004100479
:101900001FF8100010001E0011E0001C0070138072
:101910001C0010001FC0103C00E01F0000E0103C45
:101920001FC000001004180C163401C001C016348A
:10193000180C100410001C00130400FC13041C00FD
:10194000100000000804101C1064108413041C0410
:10195000101800000000000000007FFE400240025E
:1019600040020000000030000C0003800060001CFA
:101970000003000000004002400240027FFE000021
:101980000000000000000000200040004000400077
:101990002000000000010001000100010001000121
:1019A0000001000100004000400020000000000095
:1019B000000000000000009801240144014401449B
:1019C00000FC000410001FFC0088010401040088D2
:1019D0000070000000000070008801040104010490
:1019E0000088000000000070008801040104110854
:1019F0001FFC0004000000F80144014401440144BC
:101A000000C800000000010401040FFC11041104CF
:101A100011001800000000D601290129012901C97F
:101A20000106000010041FFC0084010001000104F5
:101A300000FC000400000104190419FC0004000467
:101A4000000000000000000300010101190119FE5F
:101A50000000000010041FFC0024004001B4010C31
:101A6000010400000000100410041FFC0004000426
:101A700000000000010401FC0104010001FC01045C
:101A8000010000FC010401FC0084010001000104CC
:101A900000FC0004000000F801040104010401043A
:101AA00000F80000010101FF008501040104008825
:101AB00000700000000000700088010401040105AE
:101AC00001FF00010104010401FC00840104010084
:101AD00001800000000000CC012401240124012425
:101AE0000198000000000100010007F80104010452
:101AF00000000000010001F80004000400040108D7
:101B000001FC0004010001800170000C0010016064
:101B10000180010001F0010C003001C00030010C17
:101B200001F0010000000104018C00740170018CBF
:101B300001040000010101810171000E0018016023
:101B40000180010000000184010C01340144018482
:101B5000010C0000000000000000000001003EFC3D
:101B6000400240020000000000000000FFFF0000F3
:101B7000000000000000400240023EFC01000000A6
:101B80000000000000006000800080004000400075
:101B90002000200000000000000000000000000005
:101BA0000000000000000000000000000000000035
:101BB0000000000000000000000000000000000025
:101BC000000000000000000F80380FFE380F803842
:101BD0000000000000000000000000000000000005
:101BE00000000100000600000C0000380000310079
:101BF000000600000C00003800003000000000006B
:101C00000000000061800067F807F9800061800033
:101C100061800061800061800067F807F9800061E1
:101C20008000000000000000000001C0E003E0F0C0
:101C30000630080418081FFFFE040E080787F0038B
:101C400081E000000000000001F000060C00040428
:101C500008060C7001F9C0000E00003BE000EC1813
:101C6000070808040C180003E00000000001E00071
:101C700007F003F818041C0804170807E1D003C094
:101C8000E00023B0003C0800200800001000000025
:101C90000000000100003100003200001C000000C4
:101CA0000000000000000000000000000000000034
:101CB0000000000000000000000000000000000024
:101CC000000000007F0001FFC00780F00C0018102A
:101CD00000042000020000000000002000021000AC
:101CE000040C00180780F001FFC0007F0000000016
:101CF00000000000000000000000000000000000E4
:101D00004200006600006600003C0000180003FF6F
:101D1000C0001800003C00006600006600004200A1
:101D20000000000008000008000008000008000093
:101D3000080001FFC00008000008000008000008BB
:101D40000000080000000000000100003100003227
:101D500000001C0000000000000000000000000067
:101D60000000000000000000000000000800000863
:101D7000000008000008000008000008000008003B
:101D8000000800000800000800000000000000003B
:101D9000000000003800003800003800000000009B
:101DA0000000000000000000000000000000000033
:101DB00000000000000600001C0000700001800010
:101DC0000E0000380000C0000700001C00003000BA
:101DD00000000000000000007F8001FFE003807031
:101DE00006001804000804000806001803807001AB
:101DF000FFE0007F80000000000000000000010004
:101E00000801000801000803FFF807FFF8000008B8
:101E100000000800000800000000000000000001B1
:101E2000C03802C0580400980401180402180404C1
:101E300018061C1803F81801E0F800000000000064
:101E400000000001C0E003C0F0040008040808041A
:101E5000080806180803F41801E7F00001E0000084
:101E600000000000000000000300000D0000110051
:101E700000610000810803010807FFF80FFFF80068
:101E800001080001080000000000000000E007FC5D
:101E9000D0060808061008061008061008061838AC
:101EA000060FF00607C00000000000000000000060
:101EB0003F8001FFE003843002081804100804107A
:101EC00008041008071810030FF00007C0000000F6
:101ED00000000000000003C000070000060000062C
:101EE00000F80607F806180006E0000700000600E4
:101EF0000000000000000001E1E003F7F0063410EC
:101F0000041808041808040C08040C080616180322
:101F1000F3F001C1E000000000000000F80003FC45
:101F200030030638040208040208040208040410FE
:101F30000308F001FFC0007F000000000000000067
:101F40000000000000000000000000007038007079
:101F500038007038000000000000000000000000A1
:101F60000000000000000000000000000000000071
:101F7000301A00301C0000000000000000000000CB
:101F80000000000000000000000000080000140035
:101F90000022000041000080800100400200200477
:101FA00000100800080000000000000021000021CF
:101FB000000021000021000021000021000021007C
:101FC00000210000210000210000000000000000AE
:101FD00000000800080400100200200100400080FA
:101FE00080004100002200001400000800000000F2
:101FF00000000003C00004C000040000080038080E
:102000000F380808380810000C300007E00003C043
:1020100000000000000000003F8000FFE00380702F
:10202000020F1006708804C088048308047F8802A9
:10203000C09003012000FE400000080000180001CD
:10204000F8003E0801C20007020007E20000FE009F
:10205000001FC80001F8000038000008040008074D
:10206000FFF807FFF8040808040808040808040833
:102070000806180803F41801E7F00001E00000006A
:10208000000000003F8001FFE003807002001804A0
:10209000000804000804000804001006002007805F
:1020A000C000000004000807FFF807FFF80400085C
:1020B00004000804000804001802001003807001E6
:1020C000FFE0007F8000000004000807FFF807FF22
:1020D000F8040808040808040808040808043E086E
:1020E0000400080600180100600000000400080752
:1020F000FFF807FFF80408080408000408000408B3
:1021000000043E0006000006000001800000000000
:10211000000000003F8001FFE0038070060018040B
:1021200000080402080402080203F00783F000021A
:102130000000020004000807FFF807FFF804080881
:102140000008000008000008000008000408080754
:10215000FFF807FFF804000800000000000004007A
:102160000804000804000807FFF807FFF804000847
:102170000400080400080000000000000000000047
:102180000006000007000001040001040001040033
:102190000307FFFE07FFFC0400000400000400002A
:1021A00004000807FFF807FFF8040C0800180000F7
:1021B0003E0004C7800503C80600F8040038040088
:1021C0001800000804000807FFF807FFF8040008DB
:1021D00000000800000800000800000800000800D7
:1021E000001800006000000004000807FFF80780E6
:1021F0000807FC00007FC00003F80007C00078005B
:1022000007800807FFF807FFF80400080400080724
:10221000FFF807000803C00000E000003800001EBF
:10222000000007000001C00400F007FFF8040000F0
:10223000000000007F8001FFE003807006001804AA
:10224000000804000806001803003001FFE0007FCA
:102250008000000004000807FFF807FFF8040408E6
:10226000040400040400040400040400060C000339
:10227000F80001F000000000000000007F8001FF76
:10228000E00380700600880400880400C806003C53
:1022900003003E01FFE6007F840000000400080701
:1022A000FFF807FFF8040808040800040C00040FF6
:1022B00000040BC00610F003F03801E0080000082D
:1022C00000000001E0F803F03006301004180804A4
:1022D0001808040C08040C080206180207F007810D
:1022E000E00000000180000600000400000400007F
:1022F00004000807FFF807FFF804000804000004C2
:10230000000006000001800004000007FFE007FF56
:10231000F004001800000800000800000800000891
:1023200000000804001007FFE0040000040000069D
:10233000000007E00007FE00041FE00001F80000B5
:10234000380001E0043E0007C00006000004000061
:1023500004000007E00007FFC0041FF80007C007E3
:10236000F80007FF80043FF80007C004F8000700EA
:102370000004000000000004000806001807C078F0
:1023800005F1C8003E00001F800463E80780F806DE
:102390000018040008000000040000060000078088
:1023A0000007E008047C08001FF80007F800180880
:1023B00004E008070000060000040000000000011F
:1023C00000080600380400F80403E8040F08047C41
:1023D0000805F00807C008070018040060000000A6
:1023E0000000000000000000000000000000003FAE
:1023F000FFFE200002200002200002200002200038
:1024000002000000000000000000080000070000BB
:1024100000C0000038000006000001C000003000CD
:10242000000E00000100000000000000000020007D
:10243000022000022000022000022000023FFFFED6
:10244000000000000000000000000000000000008C
:102450000000000000080000100000300000200014
:102460000030000010000008000000000000000024
:102470000000010000010000010000010000010057
:102480000001000001000001000001000001000047
:10249000010000010000000000000000002000001A
:1024A00020000010000010000000000000000000EC
:1024B00000000000000000000000000000F0001913
:1024C000F8001B1800220800260800240800241029
:1024D000003FF8001FF8000008000018000000048A
:1024E000000007FFF80FFFF0001818001008002088
:1024F00008002008003018001FF0000FC000000086
:102500000000000007C0001FF00018300020080085
:102510002008002008003C08001C1000006000009B
:10252000000000000000000007C0001FF000381885
:1025300000200800200800200804101007FFF80FF2
:10254000FFF0000010000000000000000000000785
:10255000C0001FF0001230002218002208002208DC
:10256000003208001E10000E2000000000000000D5
:10257000200000200800200801FFF803FFF80620D3
:1025800008042008042008072000030000000000C1
:1025900000000000000E000E6E001FF30031B100BD
:1025A00020B10020B1003191001F13002E1E002029
:1025B0000E00300000000004000807FFF80FFFF8CD
:1025C000001008002000002000002008003FF80054
:1025D0001FF80000080000000000000000000020BC
:1025E00008002008002008063FF8063FF800000811
:1025F00000000800000800000000000000000000CB
:102600000000000003000003002001002001002062
:1026100003063FFE063FFC00000000000000000033
:1026200000000004000807FFF80FFFF80001880011
:102630000300002FC00038F80020380020080000F8
:10264000080000000000000000000400080400086A
:1026500004000807FFF80FFFF8000008000008005A
:102660000008000000000000002008003FF8003FC4
:10267000F8001008002000003FF8003FF8001008A4
:10268000002000003FF8003FF800000800000000B4
:102690002008003FF8003FF800100800100000205C
:1026A00000002008003FF8001FF8000008000000AC
:1026B0000000000007C0000FF000183000300800D4
:1026C0002008002008003008001830000FF0000734
:1026D000C0000000000000002001003FFF003FFF9D
:1026E00000101100200900200800200800303800E8
:1026F0001FF0000FC00000000000000007C0001F16
:10270000F0003818002008002008002009001011EF
:10271000001FFF003FFF0000010000000020080034
:102720002008002008003FF8003FF80008080010CB
:1027300008002008002000003000003000000000E9
:10274000000000000000000C78001E180033080094
:1027500023080021080021880021980030F000386B
:1027600060000000000000002000002000002000A9
:1027700000FFF003FFF800200800200800200800F8
:102780000030000000000000000000002000003FBA
:10279000F0007FF80000180000080000080020107A
:1027A000003FF8007FF00000100000000000000073
:1027B0002000003000003C00003F800023F00000BB
:1027C00078000070002380003C00003000002000F2
:1027D000002000003C00003FE00023F80000E00083
:1027E0002700003E00003FE00021F80001E0003E2D
:1027F00000002000000000002008002008003838F9
:10280000003E680027800003C8002CF8003838001C
:102810002018002008000000000000002000003008
:1028200003003C01003F830023EC00007000238084
:10283000003C00002000002000000000000000001C
:1028400000000038080020380020F80023E8002F9E
:1028500088003E08003808002018000070000000C2
:102860000000000000000000000000000000000068
:1028700008000014001FF7FC3000062000020000D2
:102880000000000000000000000000000000000048
:10289000000000000000FFFFFF000000000000003B
:1028A0000000000000000000000000000000200008
:1028B000023000061FF7FC001400000800000000B2
:1028C00000000000000000000000000000000018F0
:1028D00000006000004000004000002000001000E8
:1028E000000800000400000400000C0000100000BC
:1028F00010290008000000204C140000E801000826
:10290000D42A00084C14002084080000BA100008E3
:10291000412D0102030404370607080901011BF0D9
:1029200010012AFF0552F01B0F04012AFF05320F88
:1029300018094040405F55555575041A5F0C191130
:10294000180C200F094989790909090F200F112F47
:10295000FE02424ACA4A03344202FE400EFF405081
:102960004C4340404F50505C40FF1BF888012AFF09
:102970000552F81B1F08012A7F10149F80F03B802E
:1029800082016009E2A2928A868280808440807FF0
:10299000172424A4FEA3221B22CC5A4115080601A9
:1029A000FF2A019E1604FF02020239BC5B900863F5
:1029B000120810100444827F01808040432C1028AC
:1029C00046818019281E84E43C2724011AE40C1156
:1029D000140402011AFFBD19C4496415FE225A8667
:1029E0002BFE920129BF111DFF040807C51F2003FC
:1029F0000C142241E1178040201806802D07182072
:102A0000409E1201100B20702826212020243860BF
:102A10002301013B10123C3D9212120240211A3F49
:102A2000948B103FC54BC080014BFC84080336C01B
:102A3000C03CFF7F40014AFF075B40FF6001380355
:102A40004A7F700373FCF86CFFFE02018BFFFF0BE3
:102A50000268036C1F1F04017BFFFF0B02741F033E
:102A60008C7F3F07FFF8F8F0F0702001E602148039
:102A70001AFF0109122C09132D01FF01C0EDFFFF00
:102A8000FE06011AFF01F915391603FF070201D1ED
:102A90000C12FFFFFF1409101509151601FF01C1E3
:102AA000EDFFFFFF18011914091015391601FF0178
:102AB000D204120201011AFF01011209122A01FFB8
:102AC00001D71AFF0101FF01FD05FF1F1F0F0F01B5
:042AD000E100000021
:040000050800018965
:00000001FF
